{
  "_format": "hh-sol-artifact-1",
  "contractName": "WavePortal",
  "sourceName": "contracts/WavePortal.sol",
  "abi": [
    {
      "inputs": [],
      "stateMutability": "payable",
      "type": "constructor"
    },
    {
      "inputs": [],
      "name": "_getLove",
      "outputs": [
        {
          "internalType": "uint256",
          "name": "",
          "type": "uint256"
        }
      ],
      "stateMutability": "view",
      "type": "function"
    },
    {
      "inputs": [],
      "name": "_getLoveArray",
      "outputs": [
        {
          "components": [
            {
              "internalType": "string",
              "name": "message",
              "type": "string"
            },
            {
              "internalType": "string",
              "name": "rating",
              "type": "string"
            },
            {
              "internalType": "address",
              "name": "sender",
              "type": "address"
            },
            {
              "internalType": "uint256",
              "name": "timestamp",
              "type": "uint256"
            }
          ],
          "internalType": "struct WavePortal.Love[]",
          "name": "",
          "type": "tuple[]"
        }
      ],
      "stateMutability": "view",
      "type": "function"
    },
    {
      "inputs": [
        {
          "internalType": "string",
          "name": "messageSent",
          "type": "string"
        },
        {
          "internalType": "string",
          "name": "ratingSent",
          "type": "string"
        }
      ],
      "name": "_showLove",
      "outputs": [],
      "stateMutability": "nonpayable",
      "type": "function"
    },
    {
      "inputs": [
        {
          "internalType": "address",
          "name": "",
          "type": "address"
        }
      ],
      "name": "lastLove",
      "outputs": [
        {
          "internalType": "uint256",
          "name": "",
          "type": "uint256"
        }
      ],
      "stateMutability": "view",
      "type": "function"
    }
  ],
  "bytecode": "0x60806040526200004f6040518060400160405280602081526020017f486f6c6121207468697320697320676f6e6e61206265207369636b6b6b6b6b218152506200005560201b620006991760201c565b620001e9565b620000f5816040516024016200006c919062000162565b6040516020818303038152906040527f41304fac000000000000000000000000000000000000000000000000000000007bffffffffffffffffffffffffffffffffffffffffffffffffffffffff19166020820180517bffffffffffffffffffffffffffffffffffffffffffffffffffffffff8381831617835250505050620000f860201b60201c565b50565b60008151905060006a636f6e736f6c652e6c6f679050602083016000808483855afa5050505050565b60006200012e8262000186565b6200013a818562000191565b93506200014c818560208601620001a2565b6200015781620001d8565b840191505092915050565b600060208201905081810360008301526200017e818462000121565b905092915050565b600081519050919050565b600082825260208201905092915050565b60005b83811015620001c2578082015181840152602081019050620001a5565b83811115620001d2576000848401525b50505050565b6000601f19601f8301169050919050565b6111bc80620001f96000396000f3fe608060405234801561001057600080fd5b506004361061004c5760003560e01c806335d55de5146100515780635447b529146100815780636f2e940c1461009d578063d46bcc26146100bb575b600080fd5b61006b600480360381019061006691906109b3565b6100d9565b6040516100789190610d8e565b60405180910390f35b61009b600480360381019061009691906109dc565b6100f1565b005b6100a5610465565b6040516100b29190610c8a565b60405180910390f35b6100c3610648565b6040516100d09190610d8e565b60405180910390f35b60026020528060005260406000206000915090505481565b42610384600260003373ffffffffffffffffffffffffffffffffffffffff1673ffffffffffffffffffffffffffffffffffffffff1681526020019081526020016000205461013f9190610e70565b1061017f576040517f08c379a000000000000000000000000000000000000000000000000000000000815260040161017690610d4e565b60405180910390fd5b42600260003373ffffffffffffffffffffffffffffffffffffffff1673ffffffffffffffffffffffffffffffffffffffff16815260200190815260200160002081905550600160405180608001604052808481526020018381526020013373ffffffffffffffffffffffffffffffffffffffff1681526020014281525090806001815401808255809150506001900390600052602060002090600402016000909190919091506000820151816000019080519060200190610241929190610893565b50602082015181600101908051906020019061025e929190610893565b5060408201518160020160006101000a81548173ffffffffffffffffffffffffffffffffffffffff021916908373ffffffffffffffffffffffffffffffffffffffff1602179055506060820151816003015550506000606460005442446102c59190610e70565b6102cf9190610e70565b6102d99190610fa7565b905061031a6040518060400160405280601781526020017f52616e646f6d206e756d2067656e65726174656420257300000000000000000081525082610732565b6032811015610460576103626040518060400160405280600781526020017f257320776f6e2100000000000000000000000000000000000000000000000000815250336107ce565b600066038d7ea4c680009050478111156103b1576040517f08c379a00000000000000000000000000000000000000000000000000000000081526004016103a890610d2e565b60405180910390fd5b60003373ffffffffffffffffffffffffffffffffffffffff16826040516103d790610c75565b60006040518083038185875af1925050503d8060008114610414576040519150601f19603f3d011682016040523d82523d6000602084013e610419565b606091505b505090508061045d576040517f08c379a000000000000000000000000000000000000000000000000000000000815260040161045490610d6e565b60405180910390fd5b50505b505050565b60606001805480602002602001604051908101604052809291908181526020016000905b8282101561063f57838290600052602060002090600402016040518060800160405290816000820180546104bc90610f44565b80601f01602080910402602001604051908101604052809291908181526020018280546104e890610f44565b80156105355780601f1061050a57610100808354040283529160200191610535565b820191906000526020600020905b81548152906001019060200180831161051857829003601f168201915b5050505050815260200160018201805461054e90610f44565b80601f016020809104026020016040519081016040528092919081815260200182805461057a90610f44565b80156105c75780601f1061059c576101008083540402835291602001916105c7565b820191906000526020600020905b8154815290600101906020018083116105aa57829003601f168201915b505050505081526020016002820160009054906101000a900473ffffffffffffffffffffffffffffffffffffffff1673ffffffffffffffffffffffffffffffffffffffff1673ffffffffffffffffffffffffffffffffffffffff16815260200160038201548152505081526020019060010190610489565b50505050905090565b600061068e6040518060400160405280601581526020017f5765206861766520256420746f74616c206c6f76650000000000000000000000815250600180549050610732565b600180549050905090565b61072f816040516024016106ad9190610cac565b6040516020818303038152906040527f41304fac000000000000000000000000000000000000000000000000000000007bffffffffffffffffffffffffffffffffffffffffffffffffffffffff19166020820180517bffffffffffffffffffffffffffffffffffffffffffffffffffffffff838183161783525050505061086a565b50565b6107ca8282604051602401610748929190610cfe565b6040516020818303038152906040527f9710a9d0000000000000000000000000000000000000000000000000000000007bffffffffffffffffffffffffffffffffffffffffffffffffffffffff19166020820180517bffffffffffffffffffffffffffffffffffffffffffffffffffffffff838183161783525050505061086a565b5050565b61086682826040516024016107e4929190610cce565b6040516020818303038152906040527f319af333000000000000000000000000000000000000000000000000000000007bffffffffffffffffffffffffffffffffffffffffffffffffffffffff19166020820180517bffffffffffffffffffffffffffffffffffffffffffffffffffffffff838183161783525050505061086a565b5050565b60008151905060006a636f6e736f6c652e6c6f679050602083016000808483855afa5050505050565b82805461089f90610f44565b90600052602060002090601f0160209004810192826108c15760008555610908565b82601f106108da57805160ff1916838001178555610908565b82800160010185558215610908579182015b828111156109075782518255916020019190600101906108ec565b5b5090506109159190610919565b5090565b5b8082111561093257600081600090555060010161091a565b5090565b600061094961094484610dce565b610da9565b90508281526020810184848401111561096157600080fd5b61096c848285610f02565b509392505050565b6000813590506109838161116f565b92915050565b600082601f83011261099a57600080fd5b81356109aa848260208601610936565b91505092915050565b6000602082840312156109c557600080fd5b60006109d384828501610974565b91505092915050565b600080604083850312156109ef57600080fd5b600083013567ffffffffffffffff811115610a0957600080fd5b610a1585828601610989565b925050602083013567ffffffffffffffff811115610a3257600080fd5b610a3e85828601610989565b9150509250929050565b6000610a548383610bed565b905092915050565b610a6581610ec6565b82525050565b610a7481610ec6565b82525050565b6000610a8582610e0f565b610a8f8185610e32565b935083602082028501610aa185610dff565b8060005b85811015610add5784840389528151610abe8582610a48565b9450610ac983610e25565b925060208a01995050600181019050610aa5565b50829750879550505050505092915050565b6000610afa82610e1a565b610b048185610e4e565b9350610b14818560208601610f11565b610b1d81611094565b840191505092915050565b6000610b3382610e1a565b610b3d8185610e5f565b9350610b4d818560208601610f11565b610b5681611094565b840191505092915050565b6000610b6e603383610e5f565b9150610b79826110a5565b604082019050919050565b6000610b91600a83610e5f565b9150610b9c826110f4565b602082019050919050565b6000610bb4602183610e5f565b9150610bbf8261111d565b604082019050919050565b6000610bd7600083610e43565b9150610be28261116c565b600082019050919050565b60006080830160008301518482036000860152610c0a8282610aef565b91505060208301518482036020860152610c248282610aef565b9150506040830151610c396040860182610a5c565b506060830151610c4c6060860182610c57565b508091505092915050565b610c6081610ef8565b82525050565b610c6f81610ef8565b82525050565b6000610c8082610bca565b9150819050919050565b60006020820190508181036000830152610ca48184610a7a565b905092915050565b60006020820190508181036000830152610cc68184610b28565b905092915050565b60006040820190508181036000830152610ce88185610b28565b9050610cf76020830184610a6b565b9392505050565b60006040820190508181036000830152610d188185610b28565b9050610d276020830184610c66565b9392505050565b60006020820190508181036000830152610d4781610b61565b9050919050565b60006020820190508181036000830152610d6781610b84565b9050919050565b60006020820190508181036000830152610d8781610ba7565b9050919050565b6000602082019050610da36000830184610c66565b92915050565b6000610db3610dc4565b9050610dbf8282610f76565b919050565b6000604051905090565b600067ffffffffffffffff821115610de957610de8611065565b5b610df282611094565b9050602081019050919050565b6000819050602082019050919050565b600081519050919050565b600081519050919050565b6000602082019050919050565b600082825260208201905092915050565b600081905092915050565b600082825260208201905092915050565b600082825260208201905092915050565b6000610e7b82610ef8565b9150610e8683610ef8565b9250827fffffffffffffffffffffffffffffffffffffffffffffffffffffffffffffffff03821115610ebb57610eba610fd8565b5b828201905092915050565b6000610ed182610ed8565b9050919050565b600073ffffffffffffffffffffffffffffffffffffffff82169050919050565b6000819050919050565b82818337600083830152505050565b60005b83811015610f2f578082015181840152602081019050610f14565b83811115610f3e576000848401525b50505050565b60006002820490506001821680610f5c57607f821691505b60208210811415610f7057610f6f611036565b5b50919050565b610f7f82611094565b810181811067ffffffffffffffff82111715610f9e57610f9d611065565b5b80604052505050565b6000610fb282610ef8565b9150610fbd83610ef8565b925082610fcd57610fcc611007565b5b828206905092915050565b7f4e487b7100000000000000000000000000000000000000000000000000000000600052601160045260246000fd5b7f4e487b7100000000000000000000000000000000000000000000000000000000600052601260045260246000fd5b7f4e487b7100000000000000000000000000000000000000000000000000000000600052602260045260246000fd5b7f4e487b7100000000000000000000000000000000000000000000000000000000600052604160045260246000fd5b6000601f19601f8301169050919050565b7f547279696e6720746f2077697468726177206d6f7265206d6f6e65792074686160008201527f6e2074686520636f6e7472616374206861732e00000000000000000000000000602082015250565b7f576169742031356d696e00000000000000000000000000000000000000000000600082015250565b7f4661696c656420746f207769746864726177206d6f6e657920636f6e7472616360008201527f7400000000000000000000000000000000000000000000000000000000000000602082015250565b50565b61117881610ec6565b811461118357600080fd5b5056fea2646970667358221220e72195c405bb3524742b89c057b4b6fb059375a9daeba90c476eca5f2dff9cf764736f6c63430008040033",
  "linkReferences": {},
  "deployedLinkReferences": {}
}